:100000000C9480010C949D010C949D010C949D0115
:100010000C949D010C9453060C949D010C949D012D
:100020000C949D010C949D010C949D010C949D01D8
:100030000C949D010C949D010C94F00D0C949D0169
:100040000C949D010C949D010C9494050C94DB057B
:100050000C949D010C949D010C949D010C949D01A8
:100060000C949D010C949D014E69786965436C6FF9
:10007000636B2076312E3030202861204465657016
:1000800020426F6E6469207468696E67290054515C
:100090003A3132303A4D383A4F343A43484746497C
:1000A00045443E43483C47464945443E43483C4717
:1000B0004649454644482E000D0A25530D0A000DB9
:1000C0003C3E7879000D60585900090B0002040588
:1000D00007E9EE0288E102DFD402EFC8029FBD0209
:1000E00005B302F4A8026F9F028796020B8E0218D6
:1000F0008602937E02747702BB7002686A027164A2
:1001000002CF5E027D5902755402B74F023F4B0287
:10011000054702084302473F02B73B025D380233FE
:100120003502383202652F02BC2C023A2A02DB2744
:1001300002A1250282230287210208FD01E9EE01C6
:1001400077E101DFD401D5C8019FBD01FAB201EA10
:10015000A8016F9F017496010B8E010F8601917E9D
:1001600001747701BB7001666A01726401CF5E01A0
:100170007D5901755401B74F013E4B0105470107F9
:100180004301453F01B73B015D3801353501373249
:1001900001652F01BC2C013A2A01DB27019F2501B3
:1001A000822301842101A21F01D71D012C1C01976C
:1001B0001A01181901B017015D16011C1501ED1384
:1001C00001CF1201C01101C01001CF0F01ED0E01CE
:1001D000170E014C0D018D0C01D80B012E0B018D5A
:1001E0000A01F60901670901DF0801600801E70754
:1001F000017607010B0701A50601460601EB050183
:10020000960501460501FA0401B204016F04012FAD
:100210000401F30301BA0301840301520301220321
:1002200001F50201CA0201A202017C020158020189
:10023000370201170201F90101000A15202B3514BC
:100240002A1F3F001F1C1F1E1F1E1F1F1E1F1E1FB9
:100250000C20203132000C20203234000D7E6078DA
:100260002530327525303275253032752563000D05
:100270007E78253032752E253032752E2530327538
:100280002563000D7E2532752E253032752E2530E2
:10029000327525632563000D0A5465726D696E61C0
:1002A0006C206D6F646520657869740D0A000B0C15
:1002B000000D0A5465726D696E616C206D6F646526
:1002C0002072656164792E0D0A000D2A25632530A0
:1002D00032752A2563253032752A2563253032751B
:1002E000000D2A25632532757E2E2A25632530329E
:1002F000757E2E2A2563253032752A2563256300F5
:1003000011241FBECFEFD8E0DEBFCDBF11E0A0E0CB
:10031000B1E0E4E6F8E302C005900D92A031B10728
:10032000D9F712E0A0E1B1E001C01D92AF39B107E9
:10033000E1F70E94EC010C94301C0C9400001F9318
:10034000CF93DF9381E792E061E00E94310D182F97
:1003500083E00E94550FC0E3D0E0C0FF03C085ECEE
:1003600090E002C08FEB90E069E772E00E94021912
:10037000CE0169E772E00E94D618CE0169E772E00B
:100380000E94D618CE0169E772E00E94D618CE010D
:1003900069E772E00E94D618CE0169E772E00E9418
:1003A000D618CE0169E772E00E94D61889E792E07C
:1003B0000E94DF0E80E00E943D128632D9F3853222
:1003C00021F42196CA33D10541F6812F0E94740D84
:1003D000DF91CF911F9108950F931F938FE284B9FE
:1003E00081E087B982E08AB915B88FE388B98CE0DB
:1003F0008BB9109280001092810080E096E963E052
:100400000E94F3030E949F180E9420060E941D0D67
:100410000E94B3060E94EC1281E00E94051381E065
:100420000E94550C80E091E090939A02809399028B
:1004300090939C0280939B0290939E0280939D02D6
:1004400007E812E0C8016DE672E04DEE51E00E944F
:10045000AE0E89E792E063E772E04DE252E00E945F
:10046000AE0EC8010E94D30E81E00E94990E7894CE
:1004700088EE93E00E94A00200D000D088EB90E0CC
:10048000EDB7FEB79283818388E690E094838383FF
:100490000E942D190F900F900F900F908EE890E012
:1004A00061E00E9414070E949F010E945C1780E097
:1004B00090E01F910F9108950F931F93CF93DF93B7
:1004C000EC01662311F418822FC0162F115000E0A2
:1004D0000E94590497FDFCCF8D3059F4CE01800F56
:1004E000911D8C01FC0110820E944D05F8011082C3
:1004F0001BC0883069F4002359F3015088E00E9442
:10050000B10480E20E94B10488E00E94B104E0CF0F
:100510008032F0F20117E0F6FE01E00FF11D80835A
:100520000E94B1040F5FD4CFDF91CF911F910F9143
:1005300008958330910518F002970197F1F7089517
:100540008330910560F00297FC013197F1F7FC01CF
:100550003197F1F7FC013197F1F70197F1F7089521
:10056000CF93DF93EC0105C086EE93E00E94A002DA
:1005700021972097C9F7DF91CF9108959FB7F894FD
:10058000882321F080919502806203C080919502BA
:100590008F7D809395029FBF08959FB7F89488231D
:1005A00021F080919602806203C0809196028F7D37
:1005B000809396029FBF08958091950284FF07C0A3
:1005C0008091C0008095881F8827881F089580919A
:1005D0009502817008958091950284FF04C08091F6
:1005E000C00080780895809195028270089580916E
:1005F000950284FF02C020E027C08FB7F894909145
:10060000C1009F779093C1008FBF8091950281FFB9
:1006100002C020E111C090914101809142019817E0
:1006200028F0209141018091420105C020914101B3
:1006300080914201205F281B9FB7F8948091C100F0
:1006400080688093C1009FBF822F0895809195029A
:1006500084FF02C020E027C08FB7F8949091C100BA
:100660009F779093C1008FBF8091950280FF02C059
:1006700020E111C09091410180914201981730F022
:100680002091420180914101205F04C020914201EC
:1006900080914101281B9FB7F8948091C100806828
:1006A0008093C1009FBF822F08958091960284FF9E
:1006B00004C08091C000807208958091960281707C
:1006C00008958091960284FF08C08091C0008295B1
:1006D00086958770809581700895809196028270CA
:1006E00008958091960284FF0AC08091C00090E036
:1006F00026E0969587952A95E1F781700895809177
:10070000960280FD03C080E090E008958091C000D3
:10071000829586958695817008958091960284FFD2
:1007200002C020E02BC08FB7F8949091C1009F7D4C
:100730009093C1008FBF8091960281FF02C020E29A
:1007400011C09091970280919802981728F02091FB
:1007500097028091980205C020919702809198029B
:10076000205E281B8091960280FD08C09FB7F894F8
:100770008091C10080628093C1009FBF822F089545
:100780008091960284FF02C020E02BC08FB7F894BE
:100790009091C1009F7D9093C1008FBF8091960280
:1007A00080FF02C020E211C09091970280919802D0
:1007B000981730F02091980280919702205E04C033
:1007C0002091980280919702281B8091960280FDCB
:1007D00008C09FB7F8948091C10080628093C100E7
:1007E0009FBF822F08951F93162F009719F480E062
:1007F0009BE406C021E08C32920710F48CE291E079
:100800009C0140E050E060E472E48FE090E00E94E0
:10081000D71B1092C1001092C20010924101109299
:100820004201109295021092970210929802109233
:100830009602809195028160809395028091960244
:1008400081608093960280919602806280939602E6
:10085000C90101979093C5008093C400599A589A92
:10086000519A509886E08093C20088E18093C1003D
:10087000112311F0123031F4809195028061809340
:10088000950205C08091C10080688093C10012303C
:1008900028F48091960280618093960240E050E0B7
:1008A00060E472E48FE090E00E94D71BC9011F91C1
:1008B00008958091950284FF11C08091950285FF73
:1008C00005C08091C00087FFFCCF04C08091C000AC
:1008D00087FF43C08091C600E82F3DC080919502FC
:1008E00085FF05C08091950280FDFCCF04C08091FA
:1008F000950280FD32C09FB7F8948091C1008F7738
:100900008093C1009FBF80914201E82FF0E0EF5E2D
:10091000FE4FE0818F5F80934201809142018031E0
:1009200010F010924201809195028D7F8093950284
:100930009091410180914201981729F4809195028C
:100940008160809395029FB7F8948091C100806880
:100950008093C1009FBFF0E002C0EFEFFFEFCF0137
:100960000895282F8091960284FF10C080919602EE
:1009700085FF05C08091C00085FFFCCF04C0809139
:10098000C00085FF40C02093C60008958091960264
:1009900085FF05C08091960281FDFCCF04C0809147
:1009A000960281FD30C09FB7F8948091C1008F7D81
:1009B0008093C1009FBF80919702E82FF0E0EF5D28
:1009C000FE4F20838F5F8093970280919702803241
:1009D00010F010929702809196028E7F809396027B
:1009E0009091970280919802981729F4809196022D
:1009F0008260809396029FB7F8948091C1008062D4
:100A00008093C1009FBF08951F93182F8A3039F437
:100A100080919602803419F08DE00E940405809147
:100A2000960284FF07C08091C00085FFFCCF109321
:100A3000C60007C08091960281FDFCCF812F0E94E5
:100A4000B10480E090E01F9108958091950284FFA9
:100A500009C08091C00087FF0DC08091C600282F7B
:100A600030E00AC08091950280FD04C00E945904C4
:100A70009C0102C020E030E0C90108959FB7F894BE
:100A8000882321F080919602806403C080919602B1
:100A90008F7B809396029FBF08958DE00E94B104E2
:100AA0008AE00E94B10408958F708A3010F4805D4E
:100AB00001C0895C0E94B10408951F93182F82958C
:100AC0008F700E945405812F0E9454051F91089534
:100AD0000F931F93082F18E0802F881F8827881FE7
:100AE000805D0E94B104115011F0000FF5CF1F91ED
:100AF0000F910895CF93DF93EC018991882319F02A
:100B00000E94B104FACFDF91CF910895CF93DF9384
:100B1000EC01FE0121968491882319F00E94B10412
:100B2000F8CFDF91CF9108951F920F920FB60F92D9
:100B300011248F939F93EF93FF938091C1008F7740
:100B40008093C10078949091C60090931001809199
:100B5000950281FD27C080914101E82FF0E0EF5E12
:100B6000FE4F90838F5F80934101809141018031DE
:100B700010F010924101809195028E7F8093950232
:100B80009091410180914201981731F48091950232
:100B900082608093950206C0F8948091C1008068BD
:100BA0008093C100FF91EF919F918F910F900FBEA5
:100BB0000F901F9018951F920F920FB60F9211244D
:100BC0008F939F93EF93FF938091C1008F7D8093CC
:100BD000C10078948091960280FD29C0909198027E
:100BE000E92FF0E0EF5DFE4F80818093C6009F5FAC
:100BF0009093980280919802803210F0109298029F
:100C0000809196028D7F80939602909197028091B9
:100C10009802981731F48091960281608093960231
:100C200006C0F8948091C10080628093C100FF915A
:100C3000EF919F918F910F900FBE0F901F9018957D
:100C4000A8E6B0E08C918B7F8C93109243011092B8
:100C500044011092450110924601109247015498A8
:100C60005598569857985C985D985E985F98EDE611
:100C7000F0E08081806A80838C9184608C930895F9
:100C80008091430108958091440110924401089598
:100C90008091440108958091460110924601089583
:100CA0008091460108951F920F920FB60F92112462
:100CB0002F938F939F9320E04C9921E04D992260D0
:100CC0004E9924604F992860922F9695917080914B
:100CD0004301869581709817B9F0809145018F5F27
:100CE00080934501822F8170992319F0882319F090
:100CF00006C0882321F080914401815003C0809177
:100D000044018F5F80934401922F96959695969516
:100D1000917080914301869586958695817098178C
:100D2000C1F0809147018F5F80934701822F8695A4
:100D30008695992319F080FF03C006C080FF04C088
:100D400080914601815003C0809146018F5F80935E
:100D50004601209343019F918F912F910F900FBED9
:100D60000F901F901895E1E8F0E080818083109249
:100D700085001092840010926F0085E097E49093B4
:100D800089008093880080E48093800088E08083DD
:100D9000219A29980895E1E8F0E0208120831092BB
:100DA0008500109284009093890080938800808150
:100DB0006770862B80830895882321F080918100BD
:100DC000809381000895089580916201882331F411
:100DD000E0916001F0916101E08116C0813031F451
:100DE000E0916001F0916101E4910EC0823011F058
:100DF000E0E00AC02091600130916101F999FECFD5
:100E000032BD21BDF89AE0B58E2F81568A3108F4A3
:100E1000EF7D809160019091610101969093610155
:100E2000809360018E2F08950F931F93CF93DF93CC
:100E3000182F092F8091810080938100809181007B
:100E40008093810010928500109284008FEF90E0D3
:100E50009093890080938800809181008093810025
:100E6000109360010093610160936201E4E6F1E098
:100E7000128211821082339681E0E238F807C1F7BE
:100E80000E94E4068B35E9F50E94E406803211F0F9
:100E90008A33B1F70E94E406803211F08A3311F4EC
:100EA0000E94E406C0E0D0E00EC0CE0143E0880F0F
:100EB000991F4A95E1F7CC0FDD1FC80FD91FC20F4C
:100EC000D11D0E94E406282F20532A3070F3209170
:100ED00060013091610121503040309361012093D5
:100EE0006001CF3FD10518F0CEEFD0E004C02097CD
:100EF00011F4CFEFD0E0C0936601309365012093E9
:100F00006401882309F0BCCF109360010093610154
:100F100082E080936301DF91CF911F910F9108953B
:100F200010926301E1E8F0E080818083808180831A
:100F300010928500109284008FEF90E090938900CA
:100F40008093880080818083089590E08091630180
:100F5000882309F491E0892F08952F923F924F92B0
:100F60005F926F927F928F929F92AF92BF92CF9239
:100F7000DF92EF92FF920F931F93DF93CF9300D0F6
:100F800000D000D0CDB7DEB7209163012B832223A0
:100F900009F451C480905E0190905F010894811C17
:100FA000911C90925F0180925E016090510170905F
:100FB000520140904F015090500100915C01A0906F
:100FC0005301B0905401309155013A83D0905601AD
:100FD000C090570140915801498330905901F090D9
:100FE0005A0120905B0190915D01EE2410E01E8279
:100FF0001D8228C0802F1F2D60E020C0612F1F2D73
:1010000083E022242A94D2C0612F6BC2612F802FEB
:101010001F2D092F33243A9411C0612F802F1F2DCB
:10102000092F33240BC0612F802F1F2D092F33244C
:10103000339404C0612F802F1F2D01E0F12E162F55
:10104000902F082F992319F05B81523099F580E099
:1010500090E0FC01E653FF4FE491DC01A85BBE4F3A
:10106000EC93019687309105A1F7809181008093E0
:10107000810010928500109284008FEF90E0909391
:101080008900809388008091810080938100802F67
:1010900067E091E09B8388249924A2EEAA2EA4E025
:1010A000BA2E6A83DD24F4E0CF2E1982332414E0B3
:1010B0002224C3CF913009F0AFC00E94E406E82E8D
:1010C000A0E28A1709F4B6CFBAE38B1709F4B2CFBE
:1010D0008154873068F4E82EE82FFF27E7FDF0956C
:1010E000E85BFE4F2080612F1F2D83E033245EC01C
:1010F000E2E5EE1609F482CFFCE2EF1609F47ECFAA
:1011000021E2E21629F4612F802F1F2D03E096CFF4
:101110003FE4E31621F4612F1F2D8AE066C04EE301
:10112000E41649F458E05F150CF484CF612F802F4A
:101130001F2D1F5F82CF8CE3E81641F41F140CF0C3
:1011400079CF612F802F1F2D115077CF9DE4E916A5
:1011500021F4612F1F2D8BE048C0A6E5EA1621F48B
:10116000612F1F2D8CE041C0B0E5EB1611F40DE0AE
:101170004BCFEBE4EE1629F4612F802F1F2D0EE0EC
:101180005DCFF4E5EF1621F50E94E406E82E20E29B
:10119000821771F03AE3831759F080538A3040F098
:1011A000612F1F2D80E1DD24E4E0CE2E02E046CF4A
:1011B000809160019091610101979093610180930A
:1011C0006001612F1F2D81E1DD2474E0C72E7AC2FA
:1011D0004BE5E41621F4612F1F2D82E106C05DE589
:1011E000E51629F4612F1F2D84E107E027CF8AE25D
:1011F000E81629F4612F802F1F2D00E01FCFEE206D
:1012000009F002CF80916001909161010197909364
:10121000610180936001F8CE923009F08AC09C830E
:101220000E94E406E82E9C81A0E28A1709F49CC182
:10123000BAE38B1709F498C1282F20532A3020F4E1
:10124000612F802F122FB2CFEEE28E1719F4F1E04A
:10125000DF2A05C02FE2821731F432E0D32A612F52
:10126000802F1F2DA3CF4CE7841719F05CE2851760
:1012700019F484E0D82AF3CFAEE58A1719F4B8E060
:10128000DB2AEDCFEDE28E1709F4C0CEFEE48F1716
:1012900009F4C3CE2DE3821709F4BFCE3BE28317D6
:1012A00009F4C1CE43E2841709F4BDCE57E5851792
:1012B00041F4612F802F1F2D02E0DD24CC24C39444
:1012C000BDCE88E4E81641F4612F802F1F2D02E087
:1012D000DD2452E0C52EB2CE91E5E91641F4612F2E
:1012E000802F1F2D02E0DD2444E0C42EA7CEA9E408
:1012F000EA1641F4612F802F1F2D02E0DD2438E033
:10130000C32E9CCEB3E5EB1641F4612F802F1F2D29
:1013100002E0DD2420E1C22E91CEE9E5EE1609F0CF
:101320001AC1612F802F1F2D02E0DD2490E2C92E0B
:1013300085CE933009F075C04D2DD0FC02C0C5019B
:1013400005C0C501969587958A0D9B1D41FF05C077
:1013500063E070E00E94C31BCB016C2D70E00E9423
:10136000C31B9B0142FF02C088E005C043FF02C0CF
:1013700082E001C08A81992787FD9095829F300184
:10138000839F700C929F700C1124B3E07694679445
:10139000BA95E1F7290146185708932D920DF98166
:1013A0009F0F97FF04C0945F8F2D815007C09C3022
:1013B00014F48F2D03C09C508F2D8F5F8A300CF05A
:1013C00089E0E82E87FDEE242E2D34E22302B001C1
:1013D000112443E09402C0011124680F791F6F5259
:1013E0007F4FFB01259134916E5F7F4FFB0164912C
:1013F000809181008093810010928500109284007A
:10140000309389002093880090918100862F877007
:10141000892B809381003E832D83802F1F2D04E034
:101420000DCE943079F48614970408F4DDC1861843
:1014300097084114510409F4FDCD612F802F1F2D11
:1014400005E0FCCD9530B9F4809181008093810056
:1014500010928500109284002FEF30E030938900C5
:10146000209388008091810080938100612F802FDC
:101470001F2D06E0E3CD963031F58414950400F578
:1014800070925201609251015092500140924F016E
:1014900000935C013B813093630190925F018092E5
:1014A0005E01B0925401A09253014A8140935501CC
:1014B000D0925601C0925701598150935801B3C13F
:1014C00084189508B7CD973091F40E94E406682FF0
:1014D000803209F48FCD8A3309F48CCD80538A3061
:1014E00020F0802F1F2D05E1A9CD682F3EC0983038
:1014F00099F40E94E406E82E80E2E81619F09AE3D7
:10150000E91619F40E94E406E82E612F802F1F2DA2
:101510001E821D8209E092CD993051F518C08D814F
:101520009E81A3E0880F991FAA95E1F7AD81BE8146
:10153000AA0FBB1F8A0F9B1FE22FFF27E7FDF09525
:10154000E80FF91FFE83ED830E94E406E82E2E2D9E
:1015500020532A3020F3809160019091610101971E
:101560009093610180936001612F802F1F2D66CDC4
:101570009A3019F4612F802F60CD9B3031F4612FA8
:1015800019300CF068E06A8356CD9C3069F4112361
:1015900029F480918100809381004CCD1150183046
:1015A0000CF448CD17E046CD9D3051F42D813E819D
:1015B0002C30310510F019823DCD3D8139833ACD73
:1015C0009E30A1F480E090E0FC01E653FF4FE491EF
:1015D000DC01A85BBE4FEC93019687309105A1F723
:1015E000802F1F2D67E0332433941AC09F3091F56C
:1015F0009C830E94E406E82FE1549C81E73090F43C
:10160000EE2EAE2FBB27A7FDB095CD0186539F4F81
:10161000FC016491630DA85BBE4F6C93802F1F2D5E
:101620000FE00CCDE82EFDE28F1709F4EFCC2EE48D
:10163000821709F4F2CC8D3309F4EFCC8B3209F424
:10164000F2CC833209F4EFCC80916001909161017A
:10165000019785C0903121F4612F1F2D81E132C0A7
:10166000913159F54D815E81452B21F488E790E059
:101670009E838D836C2D70E080E090E02CE732E952
:1016800040E050E00E94A41BAD81BE819D0140E07E
:1016900050E00E94D71B59012D2DD0FE05C0C50179
:1016A00096958795A80EB91E21FFC4CCC50163E0AD
:1016B00070E00E94C31B5B01BDCC923129F4612F05
:1016C0001F2D83E108E0BACC933131F5ED81FE8125
:1016D000EF3FF10528F02EEF30E03E832D8308C068
:1016E0004D815E81452B21F48FEF90E09E838D83A9
:1016F000812F992787FD9095FC01EE0FFF1FE80FC2
:10170000F91FEC59FE4F9D81928380916001909169
:101710006101918380838ECC943131F5212F332761
:1017200027FD3095F901EE0FFF1FE20FF31FEC5973
:10173000FE4F4281442309F47DCC80819181892B25
:1017400009F478CC4F3F11F041504283F901EE0F7C
:10175000FF1FE20FF31FEC59FE4F808191819093A0
:1017600061018093600166CC953109F04DCC709297
:101770005201609251015092500140924F010093EA
:101780005C0190925F0180925E01B0925401A09240
:101790005301AA81A0935501D0925601C0925701DE
:1017A000B981B093580130925901F0925A012092B8
:1017B0005B01109263018091810080938100809190
:1017C00081008093810010928500109284008FEF39
:1017D00090E09093890080938800809181008093AD
:1017E000810010925D0127C07092520160925101F8
:1017F0005092500140924F0100935C01EB81E093C5
:10180000630190925F0180925E01B0925401A092B8
:101810005301FA81F0935501D0925601C0925701BD
:1018200029812093580130925901F0925A01209257
:101830005B0190935D0126960FB6F894DEBF0FBE54
:10184000CDBFCF91DF911F910F91FF90EF90DF906F
:10185000CF90BF90AF909F908F907F906F905F9050
:101860004F903F902F90089580E090E0FC01EE0FA4
:10187000FF1FE357FE4F11821082019688309105B9
:10188000A9F71092830110928401109285011092A1
:10189000860110928701109288011092890110929E
:1018A0008A0181E0809382010895809382010895E6
:1018B000809183010895809184010895809185012C
:1018C00008959FB7F89480918501109285019FBF7C
:1018D00008958091860108959FB7F89480918601BC
:1018E000109286019FBF08958091870108959FB748
:1018F000F89480918701109287019FBF089580918D
:10190000880108959FB7F89480918801109288010A
:101910009FBF08958091890108959FB7F8948091A1
:101920008901109289019FBF0895809182018823C7
:1019300009F482C04FEF1C994EEF31994D7F3299D7
:101940004B7F3399477F34994F7E35994F7D4A9924
:101950004F7B4B994F774093830180918A014817C1
:10196000D1F480918B0190918C018F5F9F4F49F052
:1019700080918B0190918C01019690938C018093C2
:101980008B0180918B0190918C01845D914039F4A1
:101990004093850104C010928C0110928B0151E09C
:1019A00060E070E0FB01E357FE4F20813181852F1D
:1019B0008423F1F08FEF2F3F380799F12F5F3F4FCE
:1019C0002F31310559F480918601852B8093860152
:1019D00080918401852B8093840123C082E021378C
:1019E0003807F9F480918901852B8093890119C00A
:1019F0002F313105A0F080918701852B80938701DD
:101A000090918401852F80958923809384012157AB
:101A1000324028F480918801852B8093880120E052
:101A200030E0318320836E5F7F4F6031710511F0AC
:101A3000550FB8CF40938A01089515BC92E094BD2C
:101A400016BC83E687BD18BC90936E0087E085BB0B
:101A500081E792E090939E0180939D0184E085BD93
:101A60000895CF93DF93EC01AFEAB1E040E050E09E
:101A7000742F8FB7F894FA01EE0FFF1FE156FE4F57
:101A8000208131818FBF232B21F58D919C9111975E
:101A9000892BF9F43FB7F894DA01AA0FBB1FFD01B7
:101AA000E156FE4FD183C083662321F0A155BE4F7E
:101AB000CD93DC932091BF0181E090E002C0880FBC
:101AC000991F4A95E2F7809582238093BF013FBF1B
:101AD00007C04F5F5F4F12964830510549F67FEFC0
:101AE000872FDF91CF910895E82F8FB7F894F0E01A
:101AF000EE0FFF1FDF01A156BE4F11961C921E92E2
:101B0000E155FE4F118210828FBF08959B015FB790
:101B1000F894682F70E0DB01AA0FBB1FFD01E156AE
:101B2000FE4F31832083442321F0A155BE4F2D93D6
:101B30003C932091BF0181E090E002C0880F991F83
:101B40006A95E2F7809582238093BF015FBF089575
:101B50005FB7F89490E0FC01EE0FFF1FDF01A15585
:101B6000BE4F2D913C91E156FE4F31832083409131
:101B7000BF0121E030E002C0220F331F8A95E2F757
:101B8000209524232093BF015FBF0895E82F8FB7CE
:101B9000F894F0E0EE0FFF1FE156FE4F20813181F7
:101BA0008FBFC901089521E030E002C0220F331F2A
:101BB0008A95E2F73FB7F8948091BF012823662306
:101BC00039F09091BF01822F809589238093BF01C6
:101BD0003FBF822F211181E008958091BF010895B8
:101BE0001F920F920FB60F9211242F933F934F9392
:101BF0005F936F937F938F939F93AF93BF93EF9375
:101C0000FF930E94590E0E94950CAFEAB1E091E05B
:101C100040E050E0FA01EE0FFF1FE156FE4F019049
:101C2000F081E02D309799F09F012150304041F430
:101C30002D913C9111978091BF01892B8093BF0119
:101C4000FA01EE0FFF1FE156FE4F318320834F5FF5
:101C50005F4F12964830510511F0990FDBCF0E946B
:101C6000AD0780919D0190919E01019790939E01F7
:101C700080939D01892B61F481E792E090939E010E
:101C800080939D010E94081386E260E00E94F81094
:101C9000FF91EF91BF91AF919F918F917F916F9144
:101CA0005F914F913F912F910F900FBE0F901F901A
:101CB000189580910E0187FF3BC06091C101709122
:101CC000C2015091C00140E091E020E030E0FB0112
:101CD000E20FF31F8081581708F4492B97FF07C0C4
:101CE0000DB407FEFDCF4EBD40E091E001C0990F5D
:101CF0002F5F3F4F2034310551F70DB407FEFDCF64
:101D00002A9A2A98852F8F5F8093C001893080F0AE
:101D10001092C00180910E01806280930E0180912B
:101D20000E0186FF05C080910E018F7780930E0112
:101D30000895882361F080910E018F7B80930E01BE
:101D400080910E01806880930E01409A08958091E1
:101D50000E018F7780930E0140980895CF93DF9303
:101D6000FC01DB01EA0184E69FE09187808713860E
:101D7000128682E083837587648711965C934E9305
:101D800080E419928150E9F712961C92129789E02B
:101D900013968C93139715961C92159714961C9274
:101DA000DF91CF910895DC011C96ED91FC911D9778
:101DB000808191819093C2018093C1010895CF9356
:101DC000DF93EC019FB7F89480910E0180648093BB
:101DD0000E0180910E018F7D80930E0180910E0186
:101DE0008C6080930E019FBF5091C1014091C20150
:101DF000EC85FD850190F081E02D80910E0185FF3D
:101E0000FCCF80910E018F7D80930E0180910E0199
:101E100086958695837020910E01237090E030E0C6
:101E200082179307A4F480910E01806880930E01BD
:101E300080910E01869586958F5F8370880F880F3D
:101E400090910E01937F982B90930E01D1CF852F07
:101E5000942F9C01D90120E030E090818C9199234E
:101E600021F0891738F48F5F03C0882319F081505F
:101E70008C932F5F3F5F303419F011963196EDCF80
:101E800080910E01806880930E0180910E01837F06
:101E900080930E01222309F0ABCF80910E018F7B3E
:101EA00080930E01DF91CF9108952FB7F894982F6A
:101EB000843008F093E0937080910E018C7F892B21
:101EC00080930E012FBF0895CF93DF93982FFB01CE
:101ED000C485D5858C81292F2053882369F08130D2
:101EE00021F42A3038F42B8305C0823019F42730CE
:101EF00008F42A831C8204C12A3018F4922F21E0AE
:101F00000FC0892F8154893020F0892F8156893064
:101F100018F4982F22E004C0903209F0F6C023E0B4
:101F2000EA81E63078F58D8182FD0EC083FD0CC01C
:101F3000F0E0E75CFD4FE491A881B981AE0FB11DDF
:101F40008AE01D928150E9F7223069F4EA81F0E0DD
:101F5000E75CFD4FE491A881B981AE0FB11D8B8183
:101F60008C939F5F02C0233069F0EA81F0E0E75C68
:101F7000FD4FE491A881B981A90FB11DAE0FB11D2C
:101F80008B818C939D8190FD02C091FF04C08D8157
:101F90008D7F8D830DC08A818F5F8A8394FF05C0FA
:101FA000873030F086E08A8303C0863008F01A82DA
:101FB0008D81877F78C0EFE3F2E037C0E0E4F2E0A4
:101FC00034C02FE332E0F9018491E881F981E80F10
:101FD000F11D10822F5F3F4FF90127C09A81892F91
:101FE0008250823038F0943008F48AC009C08A8167
:101FF000823018F4EFE3F2E00EC0843008F080C0C5
:10200000E0E4F2E008C0E1E4F2E005C0E1E4F2E07F
:102010000CC0E2E4F2E0E491A881B981AE0FB11DF9
:102020008B818C936DC0E2E4F2E08491E881F981C8
:10203000E80FF11D108264C08B81882309F460C011
:10204000815009C08B81893008F05AC08F5F03C06E
:1020500081E022C089E08B8353C08D818E7F23C0B5
:102060008D81816020C08D8182601DC08D818B7FBC
:102070001AC08D81846017C08A8181508A8387FF4E
:1020800007C08D8184FF02C01A8202C085E08A8366
:102090008D81886008C082E08C8332C08D81806130
:1020A00002C08D818F7E8D832BC0E881F98180E411
:1020B00011928150E9F71EC0E881F98180E4119204
:1020C0008150E9F71DC08A8181508A8387FF18C03B
:1020D0008D8184FD0FC085E009C09A819F5F9A833E
:1020E0008D8184FF05C0973058F086E08A8308C050
:1020F000963030F01A8204C089E08B831A821D82E8
:1021000080E090E0DF91CF9108959C3309F472CF85
:102110009D3378F5933209F4A3CF943298F49B3031
:1021200059F39C3038F49930C1F29A3028F698303F
:1021300039F7C9CF9D30F1F29D3008F4B6CF913216
:10214000F9F691CF993209F439CF9A3248F49632A0
:1021500009F48CCF983209F42ECF943289F67DCFD2
:102160009C3209F444CF9E3209F438CF9A3241F6BA
:102170006FCF9F3509F48CCF9036C8F4993509F4A8
:1021800048CF9A3550F4903409F485CF983509F446
:102190003ACF9E3309F0B4CF33CF9D3509F452CFF7
:1021A0009E3508F069CF9B3509F0AACF45CF9B3704
:1021B00009F474CF9C3750F4983709F427CF993736
:1021C00009F431CF903609F09BCFFBCE9D3709F44F
:1021D00068CF9D3708F44DCF9E3709F091CF3ACFA5
:1021E0008FB7F8941092C3011092C4018FBF089565
:1021F0002FB7F894E091C301F0E0EE0FFF1FEB530F
:10220000FE4F8083E091C301F0E0EE0FFF1FEB5320
:10221000FE4F61838091C3018F5F8093C3018091E2
:10222000C301803110F01092C3019091C3018091DD
:10223000C401981729F48091C4018F5F8093C40171
:102240002FBF0895813218F080E090E0089520E0DB
:1022500090E0019783709070892B09F021E081E074
:102260002827822F0895813218F080E090E00895A9
:1022700020E090E0029783709070892B09F021E0B4
:1022800081E02827822F0895813218F080E090E0C5
:10229000089520E090E0039783709070892B09F0F7
:1022A00021E081E02827822F0895813218F080E014
:1022B00090E0089520E090E083709070892B09F001
:1022C00021E081E02827822F089590E0823209F4EE
:1022D00091E0892F0895282F813218F481E090E051
:1022E000089580E090E0223211F481E090E00895BA
:1022F00090E0843209F491E0892F089590E08332D0
:1023000009F491E0892F089590E08352823008F417
:1023100091E0892F089590E08552823008F491E091
:10232000892F0895BF92CF92DF92EF92FF920F9381
:102330001F930E946C0CB82E0E94770CC82E0E942E
:10234000820CD82E0E948D0CE82E0E945B0CF82E79
:1023500001E014E0802F8B2129F0812F83506F2D15
:102360000E94F810802F8C2129F0812F82506F2D30
:102370000E94F810802F8D2129F0812F81506F2D20
:102380000E94F810802F8E2121F0812F6F2D0E9446
:10239000F810103219F0000F1C5FDCCF0E94610CA6
:1023A000682F882319F082E20E94F8100E944B06E1
:1023B000682F882319F083E20E94F8100E944306D8
:1023C000682F882319F084E20E94F8100E94ED0D16
:1023D000082F10E00CC000FF08C0812F61E00E94B0
:1023E000D30D85E2612F0E94F8101F5F0695002330
:1023F00091F71F910F91FF90EF90DF90CF90BF90DA
:1024000008950E9492112FB7F8949091C301809182
:10241000C401981751F0E091C401F0E0EE0FFF1FE6
:10242000EB53FE4F9181808102C090E080E02FBF8E
:1024300008950E9492113FB7F8949091C301809142
:10244000C4019817B1F0E091C401F0E0EE0FFF1F56
:10245000EB53FE4F208191818091C4018F5F809367
:10246000C4018091C401803110F01092C401822F08
:1024700002C090E080E03FBF08951F93182F02C074
:102480000E9492119091C3018091C4019817C1F3E9
:10249000812F0E9419121F910895982FFB01DA01D4
:1024A0001C928C3010F081E08C939083992319F466
:1024B0008CE0808308959D3010F09C5090830895A7
:1024C000CF93DF93FC019B019FB7F894EF01A5EE3A
:1024D000B1E083E00D9009928150E1F79FBF9081B8
:1024E000D9011C929C3010F081E08C939083992349
:1024F00019F48CE0808304C09D3010F09C509083D0
:10250000DF91CF9108954FB7F894DC01E5EEF1E04B
:1025100083E001900D928150E1F74FBF08954FB7CE
:10252000F894A5EEB1E0FC0183E001900D9281509A
:10253000E1F78091E50181508093E5018F5F66238B
:1025400019F0855F8093E5014FBF08954FB7F89468
:10255000A5EEB1E0FC0183E001900D928150E1F71E
:102560004FBF0895FC012FB7F8948091E801909136
:10257000E901A091EA01B091EB0180839183A283EC
:10258000B3832FBF0895FC012FB7F8948081918108
:10259000A281B3818093E8019093E901A093EA01BD
:1025A000B093EB012FBF0895E82FF0E0ED5BFD4FF6
:1025B0002491823079F4CB0183709070892B51F48F
:1025C000CB0164E670E00E94C31B892B19F0822FB7
:1025D0008F5F0895822F08959FB7F8941092E701B6
:1025E0001092E6018CE08093E5019FBF2FB7F8942D
:1025F00081E08093EB018093EA0189ED97E090936D
:10260000E9018093E8012FBF08958093EC010895BC
:102610000F931F93CF93DF938091EC018823D1F127
:102620008091E7018F5F8093E7018C3398F11092DE
:10263000E7018091E6018F5F8093E6018C3350F1D2
:102640001092E6018091E5018F5F8093E50188316A
:1026500008F11092E5011091EB011F5F1093EB015F
:102660000091EA01C091E801D091E901802FBE01FB
:102670000E94D412811770F4802F8F5F8093EA013B
:102680008D3040F081E08093EA012196D093E901FA
:10269000C093E801DF91CF911F910F910895CF93DF
:1026A000DF9300D081EB92E0EDB7FEB79283818398
:1026B0000E942D1900D087E892E0EDB7FEB7928313
:1026C00081838EEA92E0948383830E94B9180F90ED
:1026D0000F900F900F9080E00E941912853081F0CA
:1026E0000E945904EC0197FDF6CF8B31910541F022
:1026F0000E94B1048C2F67E872E00E94640FEBCF58
:1027000000D087E992E0EDB7FEB7928381830E9403
:102710002D190F900F908BE067E872E00E94640F14
:10272000DF91CF9108953F924F925F926F927F9287
:102730008F929F92AF92BF92CF92DF92EF92FF92D1
:102740000F931F93CF93DF93EC018DE790E061E04F
:102750000E94310D882E8EE390E061E00E94310DE1
:10276000982E01E081E0FF2457E8652E52E0752E97
:102770004AEC442E42E0542EEE24E39430EDC32E76
:1027800037E0D32E23E3A22E28E0B22E9CE0392E90
:10279000882309F451C0823051F4688179818A819B
:1027A0000E94D412982F8B81981708F49B830130D4
:1027B00019F499E381E30CC0023011F491E307C0EE
:1027C000033021F421E399E389E303C099E389E32A
:1027D00029E34DB75EB7405150400FB6F8945EBF45
:1027E0000FBE4DBFEDB7FEB73196ADB7BEB712966F
:1027F0007C926E92119753824282848315828A81E1
:1028000086831782908711868B818287138624871F
:1028100015868881998164E670E00E94C31B9787C2
:1028200086870E94B9184DB75EB7405F5F4F0FB6FD
:10283000F8945EBF0FBE4DBF80E00E943D1285320E
:1028400099F5981511F481E008C1991509F0FDC0BA
:1028500051E0F51609F0F9C00E945B0C182F80FFBB
:1028600004C081E060E00E94F81011FF04C085E020
:1028700060E00E94F81012FF04C089E060E00E944E
:10288000F81013FF04C08DE060E00E94F81014FF00
:1028900004C081E160E00E94F81015FFD6C085E118
:1028A00060E00E94F810D1C0813039F48A818150F3
:1028B0008A83882351F43A8208C0853041F48A81A2
:1028C0008F5F8A838D3008F0EA8201E066CF89301D
:1028D00061F48B8181508B838823A1F46881798195
:1028E0008A810E94D4128B830DC08D3069F41B81C4
:1028F0001F5F1B83688179818A810E94D4128117AE
:1029000008F4EB8202E049CF813161F4888199813A
:10291000019799838883805D974008F0C1C0B98290
:10292000A882BEC0853161F488819981019699831E
:1029300088838453984008F4B3C0D982C882B0C059
:102940008232D1F4933011F4EA8214C09C3029F41D
:10295000EB8202E082E0F82E20CF903321F4D9827E
:10296000C88203E0F7CF913209F06FC0EA82EB82B0
:10297000D982C88201E0EECF843249F4090F1016E3
:1029800014F003E01FCF043008F088C010CF83326A
:10299000D9F5013069F48A81890F8A83181614F0F9
:1029A000845F04C08D3008F4F8CE8C508A83F5CE55
:1029B000023091F48B81890F8B83688179818A81C0
:1029C0000E94D4129B81191614F08B83E6CE8917CE
:1029D00008F0E3CEEB82E1CE033011F082E03DC09F
:1029E00028813981290F311D3983288347E0203D13
:1029F000340718F4B982A882D0CE2453384008F4A2
:102A0000CCCED982C882C9CE893111F404E028C065
:102A10008D3109F441C0FF2061F48430C1F0883069
:102A2000B1F08C30A1F0803191F0843181F08831A7
:102A300071F0823081F0863071F08A3061F08E3032
:102A400051F0823141F0863131F080E006C080E003
:102A5000FF24F39402C080E0FF24043008F498CEF1
:102A6000882D0E94740D892D0E94740D80E0043021
:102A700009F481E0DF91CF911F910F91FF90EF90CA
:102A8000DF90CF90BF90AF909F908F907F906F908E
:102A90005F904F903F90089505E0E2CF01E089CE2E
:102AA00003E07BCE2F923F924F925F926F927F9284
:102AB0008F929F92AF92BF92CF92DF92EF92FF924E
:102AC0000F931F93DF93CF9300D00F92CDB7DEB754
:102AD000882E8B018DE790E061E00E94310D982EE9
:102AE0008EE390E061E00E94310DA82EEE24E39485
:102AF00041E3D42E81E0CC2437E8632E32E0732EFC
:102B000021EE422E22E0522E92E0292E312C2C0E64
:102B10003D1E882309F468C021E0E21611F4FD2C63
:102B200011C032E0E31621F49D2D89E3F82E0BC08D
:102B300083E0E81629F4BD2CB9E3FB2E99E305C028
:102B4000A9E3FA2E99E3F9E3BF2E882091F4D80186
:102B50008C91BE016F5F7F4FA1019B830E944D123C
:102B60008A819B81882311F488E701C088E58A83E4
:102B700005C0F80180818983F8E7FA832DB73EB755
:102B8000245130400FB6F8943EBF0FBE2DBFEDB7B5
:102B9000FEB73196ADB7BEB712967C926E92119782
:102BA00053824282F48215828981868317829087BC
:102BB0001186D80111968C91119782871386B4865D
:102BC000158612968C9186871786F08A118A8A81DB
:102BD000828B138A0E94B918EDB7FEB774960FB6B0
:102BE000F894FEBF0FBEEDBF80E00E943D1285321B
:102BF000D1F5991549F4F1E3DF1619F0E1E3DE2E82
:102C0000EAC079E3D72EE7C09A1509F01DC121E08B
:102C1000C21609F019C10E945B0CF82E80FF04C097
:102C200081E060E00E94F810F1FE04C085E060E001
:102C30000E94F810F2FE04C089E060E00E94F810E3
:102C4000F3FE04C08DE060E00E94F810F4FE04C0C2
:102C500081E160E00E94F810F5FEF6C085E160E0D9
:102C60000E94F810F1C0813049F4D8018C91815054
:102C70008C9387FF0CC0E7E1EC9309C0853051F4D9
:102C8000D8018C918F5F8C93883108F01C92EE24D0
:102C9000E39445CF893049F4F801818181508183E3
:102CA00087FF11C02BE321830EC08D3079F4D8014A
:102CB00011968C9111978F5F11968C9311978C338D
:102CC00010F011961C9262E0E62E2ECF813149F46D
:102CD000F80182818150828387FF11C02BE3228318
:102CE0000EC0853179F4D80112968C9112978F5FBE
:102CF00012968C9312978C3310F012961C9253E01C
:102D0000E52E19CF823239F5933019F4F80110828B
:102D10001DC09C3041F4D80111961C9242E0E42E73
:102D200032E0C32E01CF903339F4F801128223E050
:102D3000E22E92E0C92EFFCE913209F085C0D80173
:102D40001C9211961C92119712961C92EE24E394F9
:102D500082E0C82EE4CE843269F4E90E1E142CF011
:102D6000B3E0EB2EA1E3DA2EE6CEB3E0BE1508F415
:102D70009BC09FC0833209F045C0E1E0EE1681F4AC
:102D8000D8018C91890F8C9387FF03C0885E8C9348
:102D9000C6CE883108F4C3CE8851F8018083BFCEF7
:102DA000F2E0EF16A9F4D80111968C911197890FD2
:102DB00011968C93119787FF04C0845C11968C93B5
:102DC000B3CE8C3308F4B0CE8C53F8018183ACCEF3
:102DD000F3E0EF1611F081E03FC0D80112968C911C
:102DE0001297890F12968C93129787FF04C0845C08
:102DF00012968C93A0CE8C3308F49DCE8C53F801A0
:102E0000828399CE893119F4F4E0EF2E29C08D31F7
:102E100009F447C0CC2061F48430C1F08830B1F0AF
:102E20008C30A1F0803191F0843181F0883171F0E3
:102E3000823081F0863071F08A3061F08E3051F04E
:102E4000823141F0863131F080E006C080E0CC2450
:102E5000C39402C080E0CC24F3E0FE1508F059CE04
:102E6000892D0E94740D8A2D0E94740D80E024E04B
:102E7000E21609F481E00F900F900F90CF91DF914F
:102E80001F910F91FF90EF90DF90CF90BF90AF9088
:102E90009F908F907F906F905F904F903F902F907A
:102EA0000895E5E0EE2EDCCFEE24E39471E3D72E17
:102EB00036CE61E3D62E30CE2F923F924F925F9264
:102EC0006F927F928F929F92AF92BF92CF92DF923A
:102ED000FF920F931F93DF93CF93CDB7DEB7289761
:102EE0000FB6F894DEBF0FBECDBF8CE069E772E08D
:102EF0000E94640F87E892E00E94D30E81E00E9456
:102F0000550F11E0FF24F394A2E0AA2EB12CAC0ED1
:102F1000BD1EF9E7CF2EF2E0DF2EE5E08E2E912CDC
:102F20008C0E9D1E7CE5272E72E0372E60E5462E26
:102F300062E0562E56E5652E52E0752E01C01F2D1B
:102F40001130E1F1113020F0123009F093C062C06D
:102F5000C501BE016F5F7F4F0E9460128981882387
:102F600011F498E701C098E599832DB73EB72E502C
:102F700030400FB6F8943EBF0FBE2DBFEDB7FEB781
:102F80003196ADB7BEB71296DC92CE92119723E878
:102F900032E0338322838A81848315828B81868306
:102FA00017828C8180871186928713860487158605
:102FB0000E94B9188DB79EB70E9626C0C5010E9413
:102FC0008312ADB7BEB71C970FB6F894BEBF0FBE45
:102FD000ADBFEDB7FEB731961296DC92CE92119747
:102FE0002FE632E0338322838A81848315828B81AA
:102FF000868317828C8180871186028713860E94C0
:10300000B9188DB79EB70C960FB6F8949EBF0FBE39
:103010008DBF30C0C4010E94B2128D819E8164E6D2
:1030200070E00E94C31B8D839E83ADB7BEB71C9713
:103030000FB6F894BEBF0FBEADBFEDB7FEB7319669
:103040001296DC92CE921197338222822F812483B2
:1030500015822885268317828087918702871386A9
:103060000E94B918EDB7FEB73C960FB6F894FEBFB4
:103070000FBEEDBF89E792E00E94DF0E80E00E9464
:103080003D12813029F4123009F459CF12E0C2CF39
:10309000853171F5123009F452CFFF2089F400D048
:1030A00000D0ADB7BEB71296DC92CE9211971496AF
:1030B0007C926E9213970E94B918FF24F3940BC070
:1030C00000D000D0EDB7FEB7D282C18254824382D5
:1030D0000E94B918FF240F900F900F900F9089E76E
:1030E00092E00E94DF0E84EF91E00E94B00227CFB1
:1030F000883019F40E944F1323CF8C3109F020CF70
:10310000123071F4C4010E94B212C4010E949313E0
:10311000082F882309F47ECFC4010E94C3127ACFFE
:10312000C5010E9483128F2DB5010E945215082FF0
:10313000882309F405CFC5010E94A61201CF88E7B4
:103140008CBD80E48DBD1EBC239A259A229A389AA4
:103150002A98409A0895FC0107C080818EBD0DB465
:1031600007FEFDCF319661506623B9F72A9A2A9857
:103170000895A0E0B0E0EFEBF8E10C94071C0F819C
:1031800018859E01255F3F4FF80183818860838306
:10319000C80169857A85A9010E945319F801238124
:1031A000277F23832096E4E00C94231C0F931F9326
:1031B000CF93DF938C01EB018B8181FF1BC082FFDA
:1031C0000DC02E813F818C819D812817390764F4C1
:1031D000E881F9810193F983E88306C0E885F985E0
:1031E000802F0995892B31F48E819F8101969F83D1
:1031F0008E8302C00FEF1FEFC801DF91CF911F91A7
:103200000F910895EF92FF920F931F93CF93DF9347
:103210007C018B01DB0113968C9181FD03C0CFEF04
:10322000DFEF15C0C0E0D0E00EC0D8011896ED91D8
:10323000FC911997B8010995892B11F0CFEFDFEFB9
:103240000894E11CF11CF7018491882371F7CE01E9
:10325000CDB7DEB7E6E00C94211CA0E0B0E0E3E3DC
:10326000F9E10C94091CFE01359661917191A091D0
:103270009B02B0919C0213968C91139788601396D1
:103280008C9380919B0290919C02AF010E945319F4
:10329000E0919B02F0919C022381277F238320965B
:1032A000E2E00C94251CABE0B0E0E9E5F9E10C9418
:1032B000F91B3C012B015A01FC0117821682838104
:1032C00081FD03C06FEF7FEFC6C19AE0892E1E011A
:1032D0000894211C311CF3012381F20123FD859107
:1032E00023FF81912F01882309F4B2C1853239F47B
:1032F00023FD859123FF81912F01853229F490E0F0
:10330000B3010E94D618E7CF982FFF24EE2499240A
:10331000FFE1FF15D0F09B3269F09C3228F4903227
:1033200059F0933291F40EC09D3249F0903369F414
:1033300041E024C052E0F52A84E0F82A28C098E051
:10334000F92A25C0E0E1FE2A22C0F7FC29C0892F16
:1033500080538A3070F4F6FE05C0989C902C11249E
:10336000980E15C0E89CE02C1124E80EF0E2FF2A2C
:103370000EC09E3229F4F6FC6BC140E4F42A07C06B
:103380009C3619F450E8F52A02C0983649F4F20147
:1033900023FD959123FF91912F01992309F0B8CF37
:1033A000892F8554833018F08052833038F444E0FC
:1033B00050E0A40EB51E5FE359830FC0933631F081
:1033C000933779F0933509F056C020C0F50180811C
:1033D000898342E050E0A40EB51E610101E010E0D7
:1033E00012C0F501C080D180F6FC03C06FEF7FEF03
:1033F00002C0692D70E042E050E0A40EB51EC60187
:103400000E943B1B8C015FE7F52214C0F501C080D0
:10341000D180F6FC03C06FEF7FEF02C0692D70E032
:1034200042E050E0A40EB51EC6010E94301B8C0184
:1034300050E8F52AF3FE07C01AC080E290E0B3011D
:103440000E94D618EA948E2D90E008171907A8F369
:103450000EC0F601F7FC8591F7FE81916F0190E0B7
:10346000B3010E94D618E110EA94015010400115F2
:10347000110579F7EAC0943611F0993669F5F7FE2F
:1034800008C0F501208131814281538184E090E0C0
:103490000AC0F501808191819C01442737FD409548
:1034A000542F82E090E0A80EB91E9FE6F92257FF44
:1034B00009C050954095309521953F4F4F4F5F4F34
:1034C000E0E8FE2ACA01B901A1012AE030E00E9429
:1034D000461BD82ED21840C0953729F41F2D1F7EC9
:1034E0002AE030E01DC01F2D197F9F3661F0903714
:1034F00020F4983509F0ACC00FC0903739F09837F8
:1035000009F0A6C004C028E030E00AC0106114FD34
:10351000146020E130E004C014FD166020E132E0C8
:1035200017FF08C0F501608171818281938144E0B9
:1035300050E008C0F50180819181BC0180E090E0FD
:1035400042E050E0A40EB51EA1010E94461BD82EF9
:10355000D2188FE7F82EF122F6FE0BC05EEFF522AF
:10356000D91438F4F4FE07C0F2FC05C08FEEF8223F
:1035700002C01D2D01C0192DF4FE0DC0FE01ED0D80
:10358000F11D8081803319F499EEF92208C01F5F84
:10359000F2FE05C003C08F2D867809F01F5F0F2D46
:1035A000F3FC14C0F0FE0FC01E1510F09D2C0BC0D4
:1035B0009D2C9E0C911A1E2D06C080E290E0B30156
:1035C0000E94D6181F5F1E15C0F304C01E1510F40C
:1035D000E11A01C0EE2404FF0FC080E390E0B301C4
:1035E0000E94D61802FF1DC001FD03C088E790E0CD
:1035F0000EC088E590E00BC0802F867891F001FF27
:1036000002C08BE201C080E2F7FC8DE290E0B301E2
:103610000E94D61806C080E390E0B3010E94D6183D
:103620009A94D914C0F3DA94F101ED0DF11D808163
:1036300090E0B3010E94D618DD20A9F706C080E211
:1036400090E0B3010E94D618EA94EE20C1F743CE71
:10365000F30166817781CB012B96E2E10C94151C76
:10366000FC010590615070400110D8F7809590954D
:103670008E0F9F1F0895FC01615070400190011052
:10368000D8F7809590958E0F9F1F0895FA01AA276D
:10369000283051F1203181F1E8946F936E7F6E5F95
:1036A0007F4F8F4F9F4FAF4FB1E03ED0B4E03CD043
:1036B000670F781F891F9A1FA11D680F791F8A1F26
:1036C000911DA11D6A0F711D811D911DA11D20D08D
:1036D00009F468943F912AE0269F11243019305D47
:1036E0003193DEF6CF010895462F4770405D419338
:1036F000B3E00FD0C9F7F6CF462F4F70405D4A3385
:1037000018F0495D31FD4052419302D0A9F7EACF4C
:10371000B4E0A6959795879577956795BA95C9F77B
:1037200000976105710508959B01AC010A2E06946E
:103730005795479537952795BA95C9F7620F731F27
:10374000841F951FA01D0895629FD001739FF001F3
:10375000829FE00DF11D649FE00DF11D929FF00D21
:10376000839FF00D749FF00D659FF00D9927729F58
:10377000B00DE11DF91F639FB00DE11DF91FBD01E3
:10378000CF0111240895AA1BBB1B51E107C0AA1F3A
:10379000BB1FA617B70710F0A61BB70B881F991FF2
:1037A0005A95A9F780959095BC01CD010895A1E2A5
:1037B0001A2EAA1BBB1BFD010DC0AA1FBB1FEE1FAB
:1037C000FF1FA217B307E407F50720F0A21BB30BF6
:1037D000E40BF50B661F771F881F991F1A9469F772
:1037E00060957095809590959B01AC01BD01CF01CE
:1037F00008952F923F924F925F926F927F928F9295
:103800009F92AF92BF92CF92DF92EF92FF920F936F
:103810001F93CF93DF93CDB7DEB7CA1BDB0B0FB679
:10382000F894DEBF0FBECDBF09942A883988488836
:103830005F846E847D848C849B84AA84B984C884CC
:10384000DF80EE80FD800C811B81AA81B981CE0FC3
:10385000D11D0FB6F894DEBF0FBECDBFED010895A8
:04386000F894FFCF0A
:10386400000000030000000004052505000080009E
:00000001FF
